:10005A00C2A5C2A6C2A7C2B7758902758C20E4F5EB
:07006A008A75A882D28C22E6
:03000B00020003ED
:03000300B2A43272
:08007D007F05AE071FEE70FACB
:010085002258
:10004000D2A512007DC2A512007D30A6FDD2A71256
:0A005000007D859008C2A7C2A62219
:10000E0012005A120040E4F509AF09EF3395E0FEF5
:10001E00C3EF94FFEE6480948050E8C3E5086480DB
:10002E00F8E5096480985004D2B78002C2B705097A
:02003E0080D769
:030000000200718A
:0C007100787FE4F6D8FD75810902000ECE
:00000001FF
