:03000000020003F8
:0C000300787FE4F6D8FD75810F02004AFA
:0A00DA00080801030206040C0809DF
:0800E5007F6EAE071FEE70FAFA
:0100ED0022F0
:1000C200E5A0F46010E5A0B4FD037F0122E5A0B431
:0800D200FE037F02227F0022E1
:10008F007C01BC0117E4FDC3ED6480948750F374C9
:10009F00082DF8E6F5901200E50D80EBBC02E37D2C
:1000AF0008D3ED6480948040D974082DF8E6F5905C
:0300BF001D80EEB3
:10000F0002008FE493A3F8E493A34003F68001F278
:10001F0008DFF48029E493A3F85407240CC8C333F2
:10002F00C4540F4420C8834004F456800146F6DFC1
:10003F00E4800B01020408102040809000DAE47E77
:10004F00019360BCA3FF543F30E509541FFEE493B6
:10005F00A360010ECF54C025E060A840B8E493A37D
:10006F00FAE493A3F8E493A3C8C582C8CAC583CAA8
:10007F00F0A3C8C582C8CAC583CADFE9DEE780BE60
:0100E400001B
:00000001FF
